{
  "contractName": "Dice",
  "abi": [
    {
      "inputs": [],
      "name": "manager",
      "outputs": [
        {
          "internalType": "address",
          "name": "",
          "type": "address"
        }
      ],
      "stateMutability": "view",
      "type": "function",
      "constant": true
    },
    {
      "inputs": [
        {
          "internalType": "uint256",
          "name": "",
          "type": "uint256"
        }
      ],
      "name": "players",
      "outputs": [
        {
          "internalType": "address payable",
          "name": "",
          "type": "address"
        }
      ],
      "stateMutability": "view",
      "type": "function",
      "constant": true
    },
    {
      "inputs": [],
      "name": "CEO",
      "outputs": [],
      "stateMutability": "nonpayable",
      "type": "function"
    },
    {
      "inputs": [],
      "name": "Enter",
      "outputs": [],
      "stateMutability": "payable",
      "type": "function",
      "payable": true
    },
    {
      "inputs": [
        {
          "internalType": "uint256",
          "name": "heuristic",
          "type": "uint256"
        }
      ],
      "name": "getRandomNumber",
      "outputs": [
        {
          "internalType": "uint256",
          "name": "",
          "type": "uint256"
        }
      ],
      "stateMutability": "view",
      "type": "function",
      "constant": true
    },
    {
      "inputs": [],
      "name": "getWinner",
      "outputs": [
        {
          "internalType": "string",
          "name": "",
          "type": "string"
        },
        {
          "internalType": "uint256",
          "name": "",
          "type": "uint256"
        }
      ],
      "stateMutability": "payable",
      "type": "function",
      "payable": true
    }
  ],
  "bytecode": "0x608060405234801561001057600080fd5b50610941806100206000396000f3fe6080604052600436106100555760003560e01c80631097e5791461005a578063481c6a75146100645780638e7ea5b21461008f578063a1088571146100ae578063b37217a4146100c5578063f71d96cb14610102575b600080fd5b61006261013f565b005b34801561007057600080fd5b506100796101ed565b6040516100869190610598565b60405180910390f35b610097610211565b6040516100a592919061065c565b60405180910390f35b3480156100ba57600080fd5b506100c36104a4565b005b3480156100d157600080fd5b506100ec60048036038101906100e791906106bd565b6104e6565b6040516100f991906106ea565b60405180910390f35b34801561010e57600080fd5b50610129600480360381019061012491906106bd565b610518565b6040516101369190610726565b60405180910390f35b66038d7ea4c680003411610188576040517f08c379a000000000000000000000000000000000000000000000000000000000815260040161017f9061078d565b60405180910390fd5b6001339080600181540180825580915050600190039060005260206000200160009091909190916101000a81548173ffffffffffffffffffffffffffffffffffffffff021916908373ffffffffffffffffffffffffffffffffffffffff160217905550565b60008054906101000a900473ffffffffffffffffffffffffffffffffffffffff1681565b606060008060009054906101000a900473ffffffffffffffffffffffffffffffffffffffff1673ffffffffffffffffffffffffffffffffffffffff163373ffffffffffffffffffffffffffffffffffffffff16146102a4576040517f08c379a000000000000000000000000000000000000000000000000000000000815260040161029b906107f9565b60405180910390fd5b60006102b060006104e6565b905060006102be60066104e6565b9050808211156103915760016000815481106102dd576102dc610819565b5b9060005260206000200160009054906101000a900473ffffffffffffffffffffffffffffffffffffffff1673ffffffffffffffffffffffffffffffffffffffff166108fc479081150290604051600060405180830381858888f1935050505015801561034d573d6000803e3d6000fd5b50816040518060400160405280601781526020017f5468652077696e6e657220697320706c61796572202331000000000000000000815250909350935050506104a0565b8181111561046157600180815481106103ad576103ac610819565b5b9060005260206000200160009054906101000a900473ffffffffffffffffffffffffffffffffffffffff1673ffffffffffffffffffffffffffffffffffffffff166108fc479081150290604051600060405180830381858888f1935050505015801561041d573d6000803e3d6000fd5b50806040518060400160405280601781526020017f5468652077696e6e657220697320706c61796572202332000000000000000000815250909350935050506104a0565b816040518060400160405280600381526020017f5469650000000000000000000000000000000000000000000000000000000000815250909350935050505b9091565b336000806101000a81548173ffffffffffffffffffffffffffffffffffffffff021916908373ffffffffffffffffffffffffffffffffffffffff160217905550565b6000806002600b84426104f99190610877565b61050391906108da565b61050d9190610877565b905080915050919050565b6001818154811061052857600080fd5b906000526020600020016000915054906101000a900473ffffffffffffffffffffffffffffffffffffffff1681565b600073ffffffffffffffffffffffffffffffffffffffff82169050919050565b600061058282610557565b9050919050565b61059281610577565b82525050565b60006020820190506105ad6000830184610589565b92915050565b600081519050919050565b600082825260208201905092915050565b60005b838110156105ed5780820151818401526020810190506105d2565b60008484015250505050565b6000601f19601f8301169050919050565b6000610615826105b3565b61061f81856105be565b935061062f8185602086016105cf565b610638816105f9565b840191505092915050565b6000819050919050565b61065681610643565b82525050565b60006040820190508181036000830152610676818561060a565b9050610685602083018461064d565b9392505050565b600080fd5b61069a81610643565b81146106a557600080fd5b50565b6000813590506106b781610691565b92915050565b6000602082840312156106d3576106d261068c565b5b60006106e1848285016106a8565b91505092915050565b60006020820190506106ff600083018461064d565b92915050565b600061071082610557565b9050919050565b61072081610705565b82525050565b600060208201905061073b6000830184610717565b92915050565b7f5468652062657420697320746f6f206c6f770000000000000000000000000000600082015250565b60006107776012836105be565b915061078282610741565b602082019050919050565b600060208201905081810360008301526107a68161076a565b9050919050565b7f5065726d697373696f6e2064656e696564000000000000000000000000000000600082015250565b60006107e36011836105be565b91506107ee826107ad565b602082019050919050565b60006020820190508181036000830152610812816107d6565b9050919050565b7f4e487b7100000000000000000000000000000000000000000000000000000000600052603260045260246000fd5b7f4e487b7100000000000000000000000000000000000000000000000000000000600052601160045260246000fd5b600061088282610643565b915061088d83610643565b92508282019050808211156108a5576108a4610848565b5b92915050565b7f4e487b7100000000000000000000000000000000000000000000000000000000600052601260045260246000fd5b60006108e582610643565b91506108f083610643565b925082610900576108ff6108ab565b5b82820690509291505056fea2646970667358221220ce9df51bbe2c2473766e32dbfa2d6aea134245132f97e69f8be8e6510779d5ff64736f6c63430008110033",
  "immutableReferences": {},
  "source": "// SPDX-License-Identifier: MIT\npragma solidity >=0.5.0 <0.9.0;\n\ncontract Dice {\n  address public manager;\n  address payable[] public players;\n\n  function CEO() public {\n    manager = msg.sender;\n  }\n\n  function Enter() public payable {\n    require(msg.value > .001 ether, \"The bet is too low\");\n    players.push(payable(msg.sender));\n  }\n\n  function getRandomNumber(uint heuristic) public view returns(uint) {\n    uint randDice = (uint(block.timestamp) + heuristic) % 11 + 2;\n    return(randDice);\n  }\n\n  function getWinner() public payable restricted returns(string memory, uint) {\n    uint player1 = getRandomNumber(0);\n    uint player2 = getRandomNumber(6);\n\n    if (player1 > player2) {\n      players[0].transfer(address(this).balance);\n      return(\"The winner is player #1\", player1);\n    } else if (player2 > player1) {\n      players[1].transfer(address(this).balance);\n      return(\"The winner is player #2\", player2);\n    } else {\n      return(\"Tie\", player1);\n    }\n  }\n\n  modifier restricted() {\n    require(msg.sender == manager, \"Permission denied\");\n    _;\n  }\n}\n",
  "sourcePath": "/Users/narek/Code/Solidity/SimpleGames/contracts/Dice.sol",
  "compiler": {
    "name": "solc",
    "version": "0.8.17+commit.8df45f5f.Emscripten.clang"
  },
  "schemaVersion": "3.4.11",
  "updatedAt": "2023-04-21T15:05:12.942Z",
  "networkType": "ethereum",
  "devdoc": {
    "kind": "dev",
    "methods": {},
    "version": 1
  },
  "userdoc": {
    "kind": "user",
    "methods": {},
    "version": 1
  }
}