{
  "contractName": "Dice",
  "abi": [
    {
      "inputs": [
        {
          "internalType": "uint256",
          "name": "heuristic",
          "type": "uint256"
        }
      ],
      "name": "getRandomNumber",
      "outputs": [
        {
          "internalType": "uint256",
          "name": "",
          "type": "uint256"
        }
      ],
      "stateMutability": "view",
      "type": "function",
      "constant": true
    },
    {
      "inputs": [],
      "name": "getWinner",
      "outputs": [
        {
          "internalType": "string",
          "name": "",
          "type": "string"
        },
        {
          "internalType": "uint256",
          "name": "",
          "type": "uint256"
        }
      ],
      "stateMutability": "view",
      "type": "function",
      "constant": true
    }
  ],
  "bytecode": "0x608060405234801561001057600080fd5b506103ff806100206000396000f3fe608060405234801561001057600080fd5b50600436106100365760003560e01c80638e7ea5b21461003b578063b37217a41461005a575b600080fd5b61004361008a565b60405161005192919061025d565b60405180910390f35b610074600480360381019061006f91906102be565b610182565b60405161008191906102eb565b60405180910390f35b60606000806100996000610182565b905060006100a76006610182565b9050808211156100f457816040518060400160405280601781526020017f5468652077696e6e657220697320706c617965722023310000000000000000008152509093509350505061017e565b8181111561013f57806040518060400160405280601781526020017f5468652077696e6e657220697320706c617965722023320000000000000000008152509093509350505061017e565b816040518060400160405280600381526020017f5469650000000000000000000000000000000000000000000000000000000000815250909350935050505b9091565b6000806002600b84426101959190610335565b61019f9190610398565b6101a99190610335565b905080915050919050565b600081519050919050565b600082825260208201905092915050565b60005b838110156101ee5780820151818401526020810190506101d3565b60008484015250505050565b6000601f19601f8301169050919050565b6000610216826101b4565b61022081856101bf565b93506102308185602086016101d0565b610239816101fa565b840191505092915050565b6000819050919050565b61025781610244565b82525050565b60006040820190508181036000830152610277818561020b565b9050610286602083018461024e565b9392505050565b600080fd5b61029b81610244565b81146102a657600080fd5b50565b6000813590506102b881610292565b92915050565b6000602082840312156102d4576102d361028d565b5b60006102e2848285016102a9565b91505092915050565b6000602082019050610300600083018461024e565b92915050565b7f4e487b7100000000000000000000000000000000000000000000000000000000600052601160045260246000fd5b600061034082610244565b915061034b83610244565b925082820190508082111561036357610362610306565b5b92915050565b7f4e487b7100000000000000000000000000000000000000000000000000000000600052601260045260246000fd5b60006103a382610244565b91506103ae83610244565b9250826103be576103bd610369565b5b82820690509291505056fea264697066735822122057ba5a267f7e1fce3fc5a6914d94a90210215fb7762820984af9eb2161877d1e64736f6c63430008110033",
  "immutableReferences": {},
  "source": "// SPDX-License-Identifier: MIT\npragma solidity >=0.4.22 <0.9.0;\n\ncontract Dice {\n  function getRandomNumber(uint heuristic) public view returns(uint) {\n    uint randDice = (uint(block.timestamp) + heuristic) % 11 + 2;\n    return(randDice);\n  }\n  function getWinner() public view returns(string memory, uint) {\n    uint player1 = getRandomNumber(0);\n    uint player2 = getRandomNumber(6);\n\n    if (player1 > player2) {\n      return(\"The winner is player #1\", player1);\n    } else if (player2 > player1) {\n      return(\"The winner is player #2\", player2);\n    } else {\n      return(\"Tie\", player1);\n    }\n  }\n}\n",
  "sourcePath": "/Users/narek/Code/Solidity/SimpleGames/contracts/Dice.sol",
  "compiler": {
    "name": "solc",
    "version": "0.8.17+commit.8df45f5f.Emscripten.clang"
  },
  "schemaVersion": "3.4.11",
  "updatedAt": "2023-04-20T06:52:19.844Z",
  "networkType": "ethereum",
  "devdoc": {
    "kind": "dev",
    "methods": {},
    "version": 1
  },
  "userdoc": {
    "kind": "user",
    "methods": {},
    "version": 1
  }
}