{
  "contractName": "DragonFarm",
  "abi": [
    {
      "anonymous": false,
      "inputs": [
        {
          "indexed": false,
          "internalType": "string",
          "name": "name",
          "type": "string"
        },
        {
          "indexed": false,
          "internalType": "uint256",
          "name": "dna",
          "type": "uint256"
        }
      ],
      "name": "NewDragon",
      "type": "event"
    },
    {
      "inputs": [
        {
          "internalType": "uint256",
          "name": "",
          "type": "uint256"
        }
      ],
      "name": "dragons",
      "outputs": [
        {
          "internalType": "string",
          "name": "name",
          "type": "string"
        },
        {
          "internalType": "uint256",
          "name": "dna",
          "type": "uint256"
        }
      ],
      "stateMutability": "view",
      "type": "function",
      "constant": true
    },
    {
      "inputs": [
        {
          "internalType": "string",
          "name": "_name",
          "type": "string"
        }
      ],
      "name": "CreateDragon",
      "outputs": [],
      "stateMutability": "nonpayable",
      "type": "function"
    }
  ],
  "bytecode": "0x608060405234801561001057600080fd5b506108a2806100206000396000f3fe608060405234801561001057600080fd5b50600436106100365760003560e01c80630fab557b1461003b578063d2a59d6914610057575b600080fd5b610055600480360381019061005091906103a2565b610088565b005b610071600480360381019061006c9190610421565b6100a3565b60405161007f9291906104dc565b60405180910390f35b60006100938261015f565b905061009f82826101a9565b5050565b600081815481106100b357600080fd5b90600052602060002090600202016000915090508060000180546100d69061053b565b80601f01602080910402602001604051908101604052809291908181526020018280546101029061053b565b801561014f5780601f106101245761010080835404028352916020019161014f565b820191906000526020600020905b81548152906001019060200180831161013257829003601f168201915b5050505050908060010154905082565b60008082604051602001610173919061056c565b6040516020818303038152906040528051906020012060001c9050662386f26fc10000816101a191906105bd565b915050919050565b6000604051806040016040528084815260200183815250908060018154018082558091505060019003906000526020600020906002020160009091909190915060008201518160000190816101fe919061079a565b506020820151816001015550507f31a340e7bf1d08ef34d4f27b310bb98fa96c3d4d8fc0779a635c9158da0de8a8828260405161023c9291906104dc565b60405180910390a15050565b6000604051905090565b600080fd5b600080fd5b600080fd5b600080fd5b6000601f19601f8301169050919050565b7f4e487b7100000000000000000000000000000000000000000000000000000000600052604160045260246000fd5b6102af82610266565b810181811067ffffffffffffffff821117156102ce576102cd610277565b5b80604052505050565b60006102e1610248565b90506102ed82826102a6565b919050565b600067ffffffffffffffff82111561030d5761030c610277565b5b61031682610266565b9050602081019050919050565b82818337600083830152505050565b6000610345610340846102f2565b6102d7565b90508281526020810184848401111561036157610360610261565b5b61036c848285610323565b509392505050565b600082601f8301126103895761038861025c565b5b8135610399848260208601610332565b91505092915050565b6000602082840312156103b8576103b7610252565b5b600082013567ffffffffffffffff8111156103d6576103d5610257565b5b6103e284828501610374565b91505092915050565b6000819050919050565b6103fe816103eb565b811461040957600080fd5b50565b60008135905061041b816103f5565b92915050565b60006020828403121561043757610436610252565b5b60006104458482850161040c565b91505092915050565b600081519050919050565b600082825260208201905092915050565b60005b8381101561048857808201518184015260208101905061046d565b60008484015250505050565b600061049f8261044e565b6104a98185610459565b93506104b981856020860161046a565b6104c281610266565b840191505092915050565b6104d6816103eb565b82525050565b600060408201905081810360008301526104f68185610494565b905061050560208301846104cd565b9392505050565b7f4e487b7100000000000000000000000000000000000000000000000000000000600052602260045260246000fd5b6000600282049050600182168061055357607f821691505b6020821081036105665761056561050c565b5b50919050565b600060208201905081810360008301526105868184610494565b905092915050565b7f4e487b7100000000000000000000000000000000000000000000000000000000600052601260045260246000fd5b60006105c8826103eb565b91506105d3836103eb565b9250826105e3576105e261058e565b5b828206905092915050565b60008190508160005260206000209050919050565b60006020601f8301049050919050565b600082821b905092915050565b6000600883026106507fffffffffffffffffffffffffffffffffffffffffffffffffffffffffffffffff82610613565b61065a8683610613565b95508019841693508086168417925050509392505050565b6000819050919050565b600061069761069261068d846103eb565b610672565b6103eb565b9050919050565b6000819050919050565b6106b18361067c565b6106c56106bd8261069e565b848454610620565b825550505050565b600090565b6106da6106cd565b6106e58184846106a8565b505050565b5b81811015610709576106fe6000826106d2565b6001810190506106eb565b5050565b601f82111561074e5761071f816105ee565b61072884610603565b81016020851015610737578190505b61074b61074385610603565b8301826106ea565b50505b505050565b600082821c905092915050565b600061077160001984600802610753565b1980831691505092915050565b600061078a8383610760565b9150826002028217905092915050565b6107a38261044e565b67ffffffffffffffff8111156107bc576107bb610277565b5b6107c6825461053b565b6107d182828561070d565b600060209050601f83116001811461080457600084156107f2578287015190505b6107fc858261077e565b865550610864565b601f198416610812866105ee565b60005b8281101561083a57848901518255600182019150602085019450602081019050610815565b868310156108575784890151610853601f891682610760565b8355505b6001600288020188555050505b50505050505056fea2646970667358221220abfd2488d6cb5fd314fc20775647808860b50bcc3fc42ee48d3f47476b64683164736f6c63430008110033",
  "immutableReferences": {},
  "source": "// SPDX-License-Identifier: MIT\npragma solidity >=0.5.0 <0.9.0;\n\ncontract DragonFarm {\n  struct Dragon {\n    string name;\n    uint dna;\n  }\n\n  Dragon[] public dragons;\n\n  event NewDragon(string name, uint dna);\n\n  function GenerateRandomDna(string memory _str) private pure returns (uint) {\n    uint rand = uint(keccak256((abi.encode(_str))));\n    return rand % (10 ** 16);\n  }\n\n  function AddDragon(string memory _name, uint _dna) private {\n    dragons.push(Dragon(_name, _dna));\n    emit NewDragon(_name, _dna);\n  }\n\n  function CreateDragon(string memory _name) public {\n    uint randDna = GenerateRandomDna(_name);\n    AddDragon(_name, randDna);\n  }\n}\n",
  "sourcePath": "/Users/narek/Code/Solidity/SimpleGames/contracts/DragonFarm.sol",
  "compiler": {
    "name": "solc",
    "version": "0.8.17+commit.8df45f5f.Emscripten.clang"
  },
  "schemaVersion": "3.4.11",
  "updatedAt": "2023-04-21T15:05:13.149Z",
  "networkType": "ethereum",
  "devdoc": {
    "kind": "dev",
    "methods": {},
    "version": 1
  },
  "userdoc": {
    "kind": "user",
    "methods": {},
    "version": 1
  }
}