{
  "contractName": "DragonForge",
  "abi": [
    {
      "anonymous": false,
      "inputs": [
        {
          "indexed": false,
          "internalType": "uint256",
          "name": "id",
          "type": "uint256"
        },
        {
          "indexed": false,
          "internalType": "string",
          "name": "name",
          "type": "string"
        },
        {
          "indexed": false,
          "internalType": "uint256",
          "name": "dna",
          "type": "uint256"
        }
      ],
      "name": "NewDragon",
      "type": "event"
    },
    {
      "inputs": [
        {
          "internalType": "string",
          "name": "name",
          "type": "string"
        }
      ],
      "name": "CreateDragon",
      "outputs": [],
      "stateMutability": "nonpayable",
      "type": "function"
    },
    {
      "inputs": [
        {
          "internalType": "uint256",
          "name": "",
          "type": "uint256"
        }
      ],
      "name": "DragonOwner",
      "outputs": [
        {
          "internalType": "address",
          "name": "",
          "type": "address"
        }
      ],
      "stateMutability": "view",
      "type": "function",
      "constant": true
    },
    {
      "inputs": [
        {
          "internalType": "uint256",
          "name": "",
          "type": "uint256"
        }
      ],
      "name": "dragons",
      "outputs": [
        {
          "internalType": "uint256",
          "name": "id",
          "type": "uint256"
        },
        {
          "internalType": "string",
          "name": "name",
          "type": "string"
        },
        {
          "internalType": "uint256",
          "name": "dna",
          "type": "uint256"
        }
      ],
      "stateMutability": "view",
      "type": "function",
      "constant": true
    },
    {
      "inputs": [
        {
          "internalType": "string",
          "name": "name",
          "type": "string"
        },
        {
          "internalType": "uint256",
          "name": "id",
          "type": "uint256"
        },
        {
          "internalType": "uint256",
          "name": "food",
          "type": "uint256"
        }
      ],
      "name": "ReForge",
      "outputs": [],
      "stateMutability": "payable",
      "type": "function",
      "payable": true
    }
  ],
  "bytecode": "0x608060405234801561001057600080fd5b50610d9c806100206000396000f3fe60806040526004361061003f5760003560e01c80630c50c644146100445780630fab557b1461008157806313ead4f0146100aa578063d2a59d69146100c6575b600080fd5b34801561005057600080fd5b5061006b60048036038101906100669190610550565b610105565b60405161007891906105be565b60405180910390f35b34801561008d57600080fd5b506100a860048036038101906100a3919061071f565b610138565b005b6100c460048036038101906100bf9190610768565b6102e2565b005b3480156100d257600080fd5b506100ed60048036038101906100e89190610550565b6103fa565b6040516100fc93929190610865565b60405180910390f35b60016020528060005260406000206000915054906101000a900473ffffffffffffffffffffffffffffffffffffffff1681565b6000610143826104bc565b90506000600260003373ffffffffffffffffffffffffffffffffffffffff1673ffffffffffffffffffffffffffffffffffffffff168152602001908152602001600020549050600060405180606001604052808381526020018581526020018481525090806001815401808255809150506001900390600052602060002090600302016000909190919091506000820151816000015560208201518160010190816101ee9190610aaf565b50604082015181600201555050336001600083815260200190815260200160002060006101000a81548173ffffffffffffffffffffffffffffffffffffffff021916908373ffffffffffffffffffffffffffffffffffffffff1602179055507f094a968afe62c9f0ce8d6395ff90deb5cbe7809a9ea66019ef5c61335ab3f11781848460405161028093929190610865565b60405180910390a1600260003373ffffffffffffffffffffffffffffffffffffffff1673ffffffffffffffffffffffffffffffffffffffff16815260200190815260200160002060008154809291906102d890610bb0565b9190505550505050565b60003411610325576040517f08c379a000000000000000000000000000000000000000000000000000000000815260040161031c90610c44565b60405180910390fd5b6000662386f26fc10000826040516020016103409190610c64565b6040516020818303038152906040528051906020012060001c6103639190610cae565b90506000600282856103759190610cdf565b61037f9190610d13565b9050600060405180606001604052808681526020018781526020018381525090806001815401808255809150506001900390600052602060002090600302016000909190919091506000820151816000015560208201518160010190816103e69190610aaf565b506040820151816002015550505050505050565b6000818154811061040a57600080fd5b9060005260206000209060030201600091509050806000015490806001018054610433906108d2565b80601f016020809104026020016040519081016040528092919081815260200182805461045f906108d2565b80156104ac5780601f10610481576101008083540402835291602001916104ac565b820191906000526020600020905b81548152906001019060200180831161048f57829003601f168201915b5050505050908060020154905083565b600080826040516020016104d09190610d44565b6040516020818303038152906040528051906020012060001c9050662386f26fc10000816104fe9190610cae565b915050919050565b6000604051905090565b600080fd5b600080fd5b6000819050919050565b61052d8161051a565b811461053857600080fd5b50565b60008135905061054a81610524565b92915050565b60006020828403121561056657610565610510565b5b60006105748482850161053b565b91505092915050565b600073ffffffffffffffffffffffffffffffffffffffff82169050919050565b60006105a88261057d565b9050919050565b6105b88161059d565b82525050565b60006020820190506105d360008301846105af565b92915050565b600080fd5b600080fd5b6000601f19601f8301169050919050565b7f4e487b7100000000000000000000000000000000000000000000000000000000600052604160045260246000fd5b61062c826105e3565b810181811067ffffffffffffffff8211171561064b5761064a6105f4565b5b80604052505050565b600061065e610506565b905061066a8282610623565b919050565b600067ffffffffffffffff82111561068a576106896105f4565b5b610693826105e3565b9050602081019050919050565b82818337600083830152505050565b60006106c26106bd8461066f565b610654565b9050828152602081018484840111156106de576106dd6105de565b5b6106e98482856106a0565b509392505050565b600082601f830112610706576107056105d9565b5b81356107168482602086016106af565b91505092915050565b60006020828403121561073557610734610510565b5b600082013567ffffffffffffffff81111561075357610752610515565b5b61075f848285016106f1565b91505092915050565b60008060006060848603121561078157610780610510565b5b600084013567ffffffffffffffff81111561079f5761079e610515565b5b6107ab868287016106f1565b93505060206107bc8682870161053b565b92505060406107cd8682870161053b565b9150509250925092565b6107e08161051a565b82525050565b600081519050919050565b600082825260208201905092915050565b60005b83811015610820578082015181840152602081019050610805565b60008484015250505050565b6000610837826107e6565b61084181856107f1565b9350610851818560208601610802565b61085a816105e3565b840191505092915050565b600060608201905061087a60008301866107d7565b818103602083015261088c818561082c565b905061089b60408301846107d7565b949350505050565b7f4e487b7100000000000000000000000000000000000000000000000000000000600052602260045260246000fd5b600060028204905060018216806108ea57607f821691505b6020821081036108fd576108fc6108a3565b5b50919050565b60008190508160005260206000209050919050565b60006020601f8301049050919050565b600082821b905092915050565b6000600883026109657fffffffffffffffffffffffffffffffffffffffffffffffffffffffffffffffff82610928565b61096f8683610928565b95508019841693508086168417925050509392505050565b6000819050919050565b60006109ac6109a76109a28461051a565b610987565b61051a565b9050919050565b6000819050919050565b6109c683610991565b6109da6109d2826109b3565b848454610935565b825550505050565b600090565b6109ef6109e2565b6109fa8184846109bd565b505050565b5b81811015610a1e57610a136000826109e7565b600181019050610a00565b5050565b601f821115610a6357610a3481610903565b610a3d84610918565b81016020851015610a4c578190505b610a60610a5885610918565b8301826109ff565b50505b505050565b600082821c905092915050565b6000610a8660001984600802610a68565b1980831691505092915050565b6000610a9f8383610a75565b9150826002028217905092915050565b610ab8826107e6565b67ffffffffffffffff811115610ad157610ad06105f4565b5b610adb82546108d2565b610ae6828285610a22565b600060209050601f831160018114610b195760008415610b07578287015190505b610b118582610a93565b865550610b79565b601f198416610b2786610903565b60005b82811015610b4f57848901518255600182019150602085019450602081019050610b2a565b86831015610b6c5784890151610b68601f891682610a75565b8355505b6001600288020188555050505b505050505050565b7f4e487b7100000000000000000000000000000000000000000000000000000000600052601160045260246000fd5b6000610bbb8261051a565b91507fffffffffffffffffffffffffffffffffffffffffffffffffffffffffffffffff8203610bed57610bec610b81565b5b600182019050919050565b7f50617920666f722074686520666f6f6421000000000000000000000000000000600082015250565b6000610c2e6011836107f1565b9150610c3982610bf8565b602082019050919050565b60006020820190508181036000830152610c5d81610c21565b9050919050565b6000602082019050610c7960008301846107d7565b92915050565b7f4e487b7100000000000000000000000000000000000000000000000000000000600052601260045260246000fd5b6000610cb98261051a565b9150610cc48361051a565b925082610cd457610cd3610c7f565b5b828206905092915050565b6000610cea8261051a565b9150610cf58361051a565b9250828201905080821115610d0d57610d0c610b81565b5b92915050565b6000610d1e8261051a565b9150610d298361051a565b925082610d3957610d38610c7f565b5b828204905092915050565b60006020820190508181036000830152610d5e818461082c565b90509291505056fea26469706673582212202625fce786ee9bea7e3dce98d36e05c4935d5d38a52a0a2b2784c5f217c4360064736f6c63430008110033",
  "immutableReferences": {},
  "source": "// SPDX-License-Identifier: MIT\npragma solidity >=0.5.22 <0.9.0;\n\nimport \"./DragonFarm.sol\";\n\ncontract DragonForge is DragonFarm {\n  function ReForge(string memory name, uint id, uint food) public payable {\n    require(msg.value > 0, \"Pay for the food!\");\n    uint brains = uint(keccak256((abi.encode(food)))) % (10 ** 16);\n    uint newDna = (id + brains) / 2;\n    dragons.push(Dragon(id, name, newDna));\n  }\n}\n",
  "sourcePath": "/Users/narek/Code/Solidity/SimpleGames/contracts/DragonForge.sol",
  "compiler": {
    "name": "solc",
    "version": "0.8.17+commit.8df45f5f.Emscripten.clang"
  },
  "schemaVersion": "3.4.11",
  "updatedAt": "2023-04-21T15:36:23.386Z",
  "networkType": "ethereum",
  "devdoc": {
    "kind": "dev",
    "methods": {},
    "version": 1
  },
  "userdoc": {
    "kind": "user",
    "methods": {},
    "version": 1
  }
}