{
  "contractName": "RandomSeven",
  "abi": [
    {
      "inputs": [
        {
          "internalType": "uint256",
          "name": "x",
          "type": "uint256"
        }
      ],
      "name": "Random",
      "outputs": [
        {
          "internalType": "string",
          "name": "",
          "type": "string"
        }
      ],
      "stateMutability": "view",
      "type": "function",
      "constant": true
    }
  ],
  "bytecode": "0x608060405234801561001057600080fd5b50610385806100206000396000f3fe608060405234801561001057600080fd5b506004361061002b5760003560e01c8063bcf69e7214610030575b600080fd5b61004a6004803603810190610045919061016e565b610060565b604051610057919061022b565b60405180910390f35b60606000434284610071919061027c565b61007b91906102ed565b90505b60008111156100f4576000600a82610096919061031e565b9050600781036100df576040518060400160405280600681526020017f57696e6e657200000000000000000000000000000000000000000000000000008152509250505061012e565b600a826100ec91906102ed565b91505061007e565b6040518060400160405280600681526020017f4c6f6f73657200000000000000000000000000000000000000000000000000008152509150505b919050565b600080fd5b6000819050919050565b61014b81610138565b811461015657600080fd5b50565b60008135905061016881610142565b92915050565b60006020828403121561018457610183610133565b5b600061019284828501610159565b91505092915050565b600081519050919050565b600082825260208201905092915050565b60005b838110156101d55780820151818401526020810190506101ba565b60008484015250505050565b6000601f19601f8301169050919050565b60006101fd8261019b565b61020781856101a6565b93506102178185602086016101b7565b610220816101e1565b840191505092915050565b6000602082019050818103600083015261024581846101f2565b905092915050565b7f4e487b7100000000000000000000000000000000000000000000000000000000600052601160045260246000fd5b600061028782610138565b915061029283610138565b92508282026102a081610138565b915082820484148315176102b7576102b661024d565b5b5092915050565b7f4e487b7100000000000000000000000000000000000000000000000000000000600052601260045260246000fd5b60006102f882610138565b915061030383610138565b925082610313576103126102be565b5b828204905092915050565b600061032982610138565b915061033483610138565b925082610344576103436102be565b5b82820690509291505056fea26469706673582212208db88e71fbbcd9db2990decf287316df41f40fa59e2c75a236641e86ecbfd8cc64736f6c63430008110033",
  "immutableReferences": {},
  "source": "// SPDX-License-Identifier: MIT\npragma solidity >=0.4.22 <0.9.0;\n\ncontract RandomSeven {\n  function Random(uint x) public view returns(string memory) {\n    uint rand = x * block.timestamp / block.number;\n    while (rand > 0) {\n      uint digit = rand % 10;\n      if (digit == 7)\n        return (\"Winner\");\n      rand /= 10;\n    }\n    return (\"Looser\");\n  }\n}\n",
  "sourcePath": "/Users/narek/Code/Solidity/SimpleGames/contracts/RandomSeven.sol",
  "compiler": {
    "name": "solc",
    "version": "0.8.17+commit.8df45f5f.Emscripten.clang"
  },
  "schemaVersion": "3.4.11",
  "updatedAt": "2023-04-21T15:05:12.382Z",
  "networkType": "ethereum",
  "devdoc": {
    "kind": "dev",
    "methods": {},
    "version": 1
  },
  "userdoc": {
    "kind": "user",
    "methods": {},
    "version": 1
  }
}