{
  "contractName": "RLottery",
  "abi": [
    {
      "inputs": [
        {
          "internalType": "uint256",
          "name": "",
          "type": "uint256"
        }
      ],
      "name": "players",
      "outputs": [
        {
          "internalType": "uint256",
          "name": "ticket",
          "type": "uint256"
        }
      ],
      "stateMutability": "view",
      "type": "function"
    },
    {
      "inputs": [],
      "name": "getTicket",
      "outputs": [
        {
          "internalType": "string",
          "name": "",
          "type": "string"
        },
        {
          "internalType": "uint256",
          "name": "",
          "type": "uint256"
        }
      ],
      "stateMutability": "payable",
      "type": "function"
    },
    {
      "inputs": [],
      "name": "winner",
      "outputs": [
        {
          "internalType": "string",
          "name": "",
          "type": "string"
        },
        {
          "internalType": "uint256",
          "name": "",
          "type": "uint256"
        }
      ],
      "stateMutability": "view",
      "type": "function"
    }
  ],
  "bytecode": "0x6080604052603260005534801561001557600080fd5b506103e0806100256000396000f3fe6080604052600436106100345760003560e01c8063c002c4d614610039578063dfbf53ae14610058578063f71d96cb14610084575b600080fd5b6100416100c1565b60405161004f9291906102a1565b60405180910390f35b34801561006457600080fd5b5061006d610165565b60405161007b9291906102a1565b60405180910390f35b34801561009057600080fd5b506100ab60048036038101906100a69190610302565b6101da565b6040516100b8919061032f565b60405180910390f35b60606000805b600054426100d59190610379565b905060006001600083815260200190815260200160002060000154116100c7576040518060200160405280828152506001600083815260200190815260200160002060008201518160000155905050806040518060400160405280600b81526020017f596f7572207469636b65740000000000000000000000000000000000000000008152509092509250509091565b60606000805b600054426101799190610379565b9050600060016000838152602001908152602001600020600001541461016b57806040518060400160405280600681526020017f57696e6e657200000000000000000000000000000000000000000000000000008152509092509250509091565b60016020528060005260406000206000915090508060000154905081565b600081519050919050565b600082825260208201905092915050565b60005b83811015610232578082015181840152602081019050610217565b60008484015250505050565b6000601f19601f8301169050919050565b600061025a826101f8565b6102648185610203565b9350610274818560208601610214565b61027d8161023e565b840191505092915050565b6000819050919050565b61029b81610288565b82525050565b600060408201905081810360008301526102bb818561024f565b90506102ca6020830184610292565b9392505050565b600080fd5b6102df81610288565b81146102ea57600080fd5b50565b6000813590506102fc816102d6565b92915050565b600060208284031215610318576103176102d1565b5b6000610326848285016102ed565b91505092915050565b60006020820190506103446000830184610292565b92915050565b7f4e487b7100000000000000000000000000000000000000000000000000000000600052601260045260246000fd5b600061038482610288565b915061038f83610288565b92508261039f5761039e61034a565b5b82820690509291505056fea2646970667358221220744367129751f98f74864280547924db691cd9fd1b5c72f1b3014a1de45081d864736f6c63430008110033",
  "immutableReferences": {},
  "source": "// SPDX-License-Identifier: MIT\npragma solidity >=0.4.22 <0.9.0;\n\ncontract RLottery {\n  uint maxNum = 50;\n  struct player {\n    uint ticket;\n  }\n\n  mapping (uint => player) public players;\n\n  function getTicket() public payable returns(string memory, uint) {\n    uint newTicket;\n    do {\n      newTicket = block.timestamp % maxNum;\n    } while (players[newTicket].ticket > 0);\n\n    players[newTicket] = player(newTicket);\n    return(\"Your ticket\", newTicket);\n  }\n\n  function winner() public view returns(string memory, uint) {\n    uint winTicket;\n    do {\n      winTicket = block.timestamp % maxNum;\n    } while (players[winTicket].ticket == 0);\n\n    return(\"Winner\", winTicket);\n  }\n}\n",
  "sourcePath": "/Users/narek/Code/Solidity/SimpleGames/contracts/RLottery.sol",
  "compiler": {
    "name": "solc",
    "version": "0.8.17+commit.8df45f5f.Emscripten.clang"
  },
  "schemaVersion": "3.4.11",
  "updatedAt": "2023-03-09T18:46:56.940Z",
  "devdoc": {
    "kind": "dev",
    "methods": {},
    "version": 1
  },
  "userdoc": {
    "kind": "user",
    "methods": {},
    "version": 1
  }
}