{
  "contractName": "RLottery",
  "abi": [
    {
      "inputs": [
        {
          "internalType": "uint256",
          "name": "",
          "type": "uint256"
        }
      ],
      "name": "players",
      "outputs": [
        {
          "internalType": "uint256",
          "name": "ticket",
          "type": "uint256"
        }
      ],
      "stateMutability": "view",
      "type": "function",
      "constant": true
    },
    {
      "inputs": [],
      "name": "getTicket",
      "outputs": [
        {
          "internalType": "uint256",
          "name": "",
          "type": "uint256"
        }
      ],
      "stateMutability": "payable",
      "type": "function",
      "payable": true
    },
    {
      "inputs": [],
      "name": "getWinner",
      "outputs": [
        {
          "internalType": "uint256",
          "name": "",
          "type": "uint256"
        }
      ],
      "stateMutability": "view",
      "type": "function",
      "constant": true
    }
  ],
  "bytecode": "0x60806040526001600055602a60015534801561001a57600080fd5b506103ea8061002a6000396000f3fe6080604052600436106100345760003560e01c80638e7ea5b214610039578063c002c4d614610064578063f71d96cb14610082575b600080fd5b34801561004557600080fd5b5061004e6100bf565b60405161005b91906101b3565b60405180910390f35b61006c6100e4565b60405161007991906101b3565b60405180910390f35b34801561008e57600080fd5b506100a960048036038101906100a491906101ff565b61017c565b6040516100b691906101b3565b60405180910390f35b60008060018054426100d1919061025b565b6100db91906102bb565b90508091505090565b60006001546000541061012c576040517f08c379a00000000000000000000000000000000000000000000000000000000081526004016101239061034c565b60405180910390fd5b60008060008154809291906101409061036c565b91905055905060405180602001604052808281525060026000838152602001908152602001600020600082015181600001559050508091505090565b60026020528060005260406000206000915090508060000154905081565b6000819050919050565b6101ad8161019a565b82525050565b60006020820190506101c860008301846101a4565b92915050565b600080fd5b6101dc8161019a565b81146101e757600080fd5b50565b6000813590506101f9816101d3565b92915050565b600060208284031215610215576102146101ce565b5b6000610223848285016101ea565b91505092915050565b7f4e487b7100000000000000000000000000000000000000000000000000000000600052601260045260246000fd5b60006102668261019a565b91506102718361019a565b9250826102815761028061022c565b5b828206905092915050565b7f4e487b7100000000000000000000000000000000000000000000000000000000600052601160045260246000fd5b60006102c68261019a565b91506102d18361019a565b92508282019050808211156102e9576102e861028c565b5b92915050565b600082825260208201905092915050565b7f534f4c44204f5554000000000000000000000000000000000000000000000000600082015250565b60006103366008836102ef565b915061034182610300565b602082019050919050565b6000602082019050818103600083015261036581610329565b9050919050565b60006103778261019a565b91507fffffffffffffffffffffffffffffffffffffffffffffffffffffffffffffffff82036103a9576103a861028c565b5b60018201905091905056fea2646970667358221220d7ab27e2e904455382d6b55792f6de78d210ef137f0b32ed034e38451d61233664736f6c63430008110033",
  "immutableReferences": {},
  "source": "// SPDX-License-Identifier: MIT\npragma solidity >=0.4.22 <0.9.0;\n\ncontract RLottery {\n  uint current = 1;\n  uint maxTickets = 42;\n  struct player {\n    uint ticket;\n  }\n\n  mapping (uint => player) public players;\n\n  function getTicket() public payable returns(uint) {\n    require(current < maxTickets, \"SOLD OUT\");\n    uint ticket = current++;\n    players[ticket] = player(ticket);\n    return(ticket);\n  }\n\n  function getWinner() public view returns(uint) {\n     //uint(keccak256(abi.encodePacked(block.timestamp, msg.sender, maxTickets))) % 9;\n    uint winner = uint(block.timestamp) % maxTickets + 1;\n    return(winner);\n  }\n}\n",
  "sourcePath": "/Users/narek/Code/Solidity/SimpleGames/contracts/RLottery.sol",
  "compiler": {
    "name": "solc",
    "version": "0.8.17+commit.8df45f5f.Emscripten.clang"
  },
  "schemaVersion": "3.4.11",
  "updatedAt": "2023-04-20T06:19:54.588Z",
  "networkType": "ethereum",
  "devdoc": {
    "kind": "dev",
    "methods": {},
    "version": 1
  },
  "userdoc": {
    "kind": "user",
    "methods": {},
    "version": 1
  }
}