{
  "contractName": "Address",
  "abi": [
    {
      "inputs": [
        {
          "internalType": "address",
          "name": "userAddress",
          "type": "address"
        }
      ],
      "name": "set",
      "outputs": [],
      "stateMutability": "nonpayable",
      "type": "function"
    },
    {
      "inputs": [
        {
          "internalType": "address",
          "name": "userAddress",
          "type": "address"
        }
      ],
      "name": "get",
      "outputs": [
        {
          "internalType": "uint256",
          "name": "",
          "type": "uint256"
        }
      ],
      "stateMutability": "view",
      "type": "function",
      "constant": true
    },
    {
      "inputs": [],
      "name": "getAll",
      "outputs": [
        {
          "internalType": "address[]",
          "name": "",
          "type": "address[]"
        }
      ],
      "stateMutability": "view",
      "type": "function",
      "constant": true
    }
  ],
  "bytecode": "0x60806040526000805534801561001457600080fd5b506105a4806100246000396000f3fe608060405234801561001057600080fd5b50600436106100415760003560e01c80632801617e1461004657806353ed514314610062578063c2bc2efc14610080575b600080fd5b610060600480360381019061005b9190610324565b6100b0565b005b61006a61011d565b604051610077919061040f565b60405180910390f35b61009a60048036038101906100959190610324565b610216565b6040516100a7919061044a565b60405180910390f35b80600160008054815260200190815260200160002060006101000a81548173ffffffffffffffffffffffffffffffffffffffff021916908373ffffffffffffffffffffffffffffffffffffffff16021790555060008081548092919061011590610494565b919050555050565b60606000805467ffffffffffffffff81111561013c5761013b6104dc565b5b60405190808252806020026020018201604052801561016a5781602001602082028036833780820191505090505b50905060005b60005481101561020e576001600082815260200190815260200160002060009054906101000a900473ffffffffffffffffffffffffffffffffffffffff168282815181106101c1576101c061050b565b5b602002602001019073ffffffffffffffffffffffffffffffffffffffff16908173ffffffffffffffffffffffffffffffffffffffff1681525050808061020690610494565b915050610170565b508091505090565b600080600090505b60005481116102a9578273ffffffffffffffffffffffffffffffffffffffff166001600083815260200190815260200160002060009054906101000a900473ffffffffffffffffffffffffffffffffffffffff1673ffffffffffffffffffffffffffffffffffffffff160361029657809150506102bc565b80806102a190610494565b91505061021e565b5060016000546102b9919061053a565b90505b919050565b600080fd5b600073ffffffffffffffffffffffffffffffffffffffff82169050919050565b60006102f1826102c6565b9050919050565b610301816102e6565b811461030c57600080fd5b50565b60008135905061031e816102f8565b92915050565b60006020828403121561033a576103396102c1565b5b60006103488482850161030f565b91505092915050565b600081519050919050565b600082825260208201905092915050565b6000819050602082019050919050565b610386816102e6565b82525050565b6000610398838361037d565b60208301905092915050565b6000602082019050919050565b60006103bc82610351565b6103c6818561035c565b93506103d18361036d565b8060005b838110156104025781516103e9888261038c565b97506103f4836103a4565b9250506001810190506103d5565b5085935050505092915050565b6000602082019050818103600083015261042981846103b1565b905092915050565b6000819050919050565b61044481610431565b82525050565b600060208201905061045f600083018461043b565b92915050565b7f4e487b7100000000000000000000000000000000000000000000000000000000600052601160045260246000fd5b600061049f82610431565b91507fffffffffffffffffffffffffffffffffffffffffffffffffffffffffffffffff82036104d1576104d0610465565b5b600182019050919050565b7f4e487b7100000000000000000000000000000000000000000000000000000000600052604160045260246000fd5b7f4e487b7100000000000000000000000000000000000000000000000000000000600052603260045260246000fd5b600061054582610431565b915061055083610431565b925082820190508082111561056857610567610465565b5b9291505056fea2646970667358221220826490131cc334934fc95f9219a4ffa71bc5310c006ca60caa91c3e4da593e4064736f6c63430008110033",
  "immutableReferences": {},
  "source": "// SPDX-License-Identifier: MIT\npragma solidity >=0.4.22 <0.9.0;\n\ncontract Address {\n  uint length = 0;\n  mapping (uint => address) addresses;\n\n  function set(address userAddress) public {\n    addresses[length] = userAddress;\n    length++;\n  }\n\n  function get(address userAddress) public view returns (uint) {\n    for (uint i = 0; i <= length; i++) {\n      if (addresses[i] == userAddress) {\n        return i;\n      }\n    }\n    return length + 1;\n  }\n\n  function getAll() public view returns (address[] memory) {\n    address[] memory all = new address[](length);\n    for (uint i = 0; i < length; i++) {\n      all[i] = addresses[i];\n    }\n    return all;\n  }\n}\n",
  "sourcePath": "/Users/narek/Code/Solidity/SimpleData/contracts/Address.sol",
  "compiler": {
    "name": "solc",
    "version": "0.8.17+commit.8df45f5f.Emscripten.clang"
  },
  "schemaVersion": "3.4.11",
  "updatedAt": "2023-02-20T20:40:10.777Z",
  "networkType": "ethereum",
  "devdoc": {
    "kind": "dev",
    "methods": {},
    "version": 1
  },
  "userdoc": {
    "kind": "user",
    "methods": {},
    "version": 1
  }
}