{
  "contractName": "Grades",
  "abi": [
    {
      "inputs": [
        {
          "internalType": "string",
          "name": "",
          "type": "string"
        }
      ],
      "name": "results",
      "outputs": [
        {
          "internalType": "uint256",
          "name": "amount",
          "type": "uint256"
        },
        {
          "internalType": "uint256",
          "name": "sum",
          "type": "uint256"
        },
        {
          "internalType": "uint256",
          "name": "average",
          "type": "uint256"
        }
      ],
      "stateMutability": "view",
      "type": "function",
      "constant": true
    },
    {
      "inputs": [
        {
          "internalType": "string",
          "name": "title",
          "type": "string"
        },
        {
          "internalType": "uint256",
          "name": "grade",
          "type": "uint256"
        }
      ],
      "name": "setGrade",
      "outputs": [],
      "stateMutability": "nonpayable",
      "type": "function"
    }
  ],
  "bytecode": "0x608060405234801561001057600080fd5b5061060c806100206000396000f3fe608060405234801561001057600080fd5b50600436106100365760003560e01c80634b13d17d1461003b5780634c5390121461006d575b600080fd5b61005560048036038101906100509190610322565b610089565b60405161006493929190610384565b60405180910390f35b610087600480360381019061008291906103e7565b6100c9565b005b6000818051602081018201805184825260208301602085012081835280955050505050506000915090508060000154908060010154908060020154905083565b6000811180156100d95750600681105b6100e257600080fd5b6000826040516100f291906104b4565b90815260200160405180910390206000016000815480929190610114906104fa565b91905055508060008360405161012a91906104b4565b9081526020016040518091039020600101600082825461014a9190610542565b9250508190555060008260405161016191906104b4565b90815260200160405180910390206000015460008360405161018391906104b4565b90815260200160405180910390206001015461019f91906105a5565b6000836040516101af91906104b4565b9081526020016040518091039020600201819055505050565b6000604051905090565b600080fd5b600080fd5b600080fd5b600080fd5b6000601f19601f8301169050919050565b7f4e487b7100000000000000000000000000000000000000000000000000000000600052604160045260246000fd5b61022f826101e6565b810181811067ffffffffffffffff8211171561024e5761024d6101f7565b5b80604052505050565b60006102616101c8565b905061026d8282610226565b919050565b600067ffffffffffffffff82111561028d5761028c6101f7565b5b610296826101e6565b9050602081019050919050565b82818337600083830152505050565b60006102c56102c084610272565b610257565b9050828152602081018484840111156102e1576102e06101e1565b5b6102ec8482856102a3565b509392505050565b600082601f830112610309576103086101dc565b5b81356103198482602086016102b2565b91505092915050565b600060208284031215610338576103376101d2565b5b600082013567ffffffffffffffff811115610356576103556101d7565b5b610362848285016102f4565b91505092915050565b6000819050919050565b61037e8161036b565b82525050565b60006060820190506103996000830186610375565b6103a66020830185610375565b6103b36040830184610375565b949350505050565b6103c48161036b565b81146103cf57600080fd5b50565b6000813590506103e1816103bb565b92915050565b600080604083850312156103fe576103fd6101d2565b5b600083013567ffffffffffffffff81111561041c5761041b6101d7565b5b610428858286016102f4565b9250506020610439858286016103d2565b9150509250929050565b600081519050919050565b600081905092915050565b60005b8381101561047757808201518184015260208101905061045c565b60008484015250505050565b600061048e82610443565b610498818561044e565b93506104a8818560208601610459565b80840191505092915050565b60006104c08284610483565b915081905092915050565b7f4e487b7100000000000000000000000000000000000000000000000000000000600052601160045260246000fd5b60006105058261036b565b91507fffffffffffffffffffffffffffffffffffffffffffffffffffffffffffffffff8203610537576105366104cb565b5b600182019050919050565b600061054d8261036b565b91506105588361036b565b92508282019050808211156105705761056f6104cb565b5b92915050565b7f4e487b7100000000000000000000000000000000000000000000000000000000600052601260045260246000fd5b60006105b08261036b565b91506105bb8361036b565b9250826105cb576105ca610576565b5b82820490509291505056fea264697066735822122074275025e6a82a3887b85eb166b63cfb708981fdcafccd03761005b092851f8b64736f6c63430008110033",
  "immutableReferences": {},
  "source": "// SPDX-License-Identifier: MIT\npragma solidity >=0.4.22 <0.9.0;\n\ncontract Grades {\n  struct Calc {\n    uint amount;\n    uint sum;\n    uint average;\n  }\n\n  mapping (string => Calc) public results;\n\n  function setGrade(string memory title, uint grade) public {\n    require(grade > 0 && grade < 6);\n    results[title].amount++;\n    results[title].sum += grade;\n    results[title].average = uint(results[title].sum / results[title].amount);\n  }\n}\n",
  "sourcePath": "/Users/narek/Code/Solidity/SimpleData/contracts/Grades.sol",
  "compiler": {
    "name": "solc",
    "version": "0.8.17+commit.8df45f5f.Emscripten.clang"
  },
  "schemaVersion": "3.4.11",
  "updatedAt": "2023-02-20T19:33:48.427Z",
  "networkType": "ethereum",
  "devdoc": {
    "kind": "dev",
    "methods": {},
    "version": 1
  },
  "userdoc": {
    "kind": "user",
    "methods": {},
    "version": 1
  }
}