{
  "contractName": "NewNote",
  "abi": [
    {
      "inputs": [
        {
          "internalType": "string",
          "name": "",
          "type": "string"
        }
      ],
      "name": "users",
      "outputs": [
        {
          "internalType": "string",
          "name": "name",
          "type": "string"
        },
        {
          "internalType": "string",
          "name": "adress",
          "type": "string"
        },
        {
          "internalType": "uint256",
          "name": "number",
          "type": "uint256"
        }
      ],
      "stateMutability": "view",
      "type": "function",
      "constant": true
    },
    {
      "inputs": [
        {
          "internalType": "string",
          "name": "name",
          "type": "string"
        },
        {
          "internalType": "string",
          "name": "adress",
          "type": "string"
        },
        {
          "internalType": "uint256",
          "name": "number",
          "type": "uint256"
        }
      ],
      "name": "setUser",
      "outputs": [],
      "stateMutability": "nonpayable",
      "type": "function"
    },
    {
      "inputs": [
        {
          "internalType": "string",
          "name": "name",
          "type": "string"
        }
      ],
      "name": "getUser",
      "outputs": [
        {
          "internalType": "string",
          "name": "",
          "type": "string"
        },
        {
          "internalType": "uint256",
          "name": "",
          "type": "uint256"
        }
      ],
      "stateMutability": "view",
      "type": "function",
      "constant": true
    }
  ],
  "bytecode": "0x608060405234801561001057600080fd5b50610a35806100206000396000f3fe608060405234801561001057600080fd5b50600436106100415760003560e01c806331feb67114610046578063689e1c0314610077578063b0147f80146100a9575b600080fd5b610060600480360381019061005b91906104c1565b6100c5565b60405161006e9291906105a2565b60405180910390f35b610091600480360381019061008c91906104c1565b6101a0565b6040516100a0939291906105d2565b60405180910390f35b6100c360048036038101906100be9190610643565b6102f0565b005b6060600080836040516100d8919061070a565b90815260200160405180910390206001016000846040516100f9919061070a565b90815260200160405180910390206002015481805461011790610750565b80601f016020809104026020016040519081016040528092919081815260200182805461014390610750565b80156101905780601f1061016557610100808354040283529160200191610190565b820191906000526020600020905b81548152906001019060200180831161017357829003601f168201915b5050505050915091509150915091565b6000818051602081018201805184825260208301602085012081835280955050505050506000915090508060000180546101d990610750565b80601f016020809104026020016040519081016040528092919081815260200182805461020590610750565b80156102525780601f1061022757610100808354040283529160200191610252565b820191906000526020600020905b81548152906001019060200180831161023557829003601f168201915b50505050509080600101805461026790610750565b80601f016020809104026020016040519081016040528092919081815260200182805461029390610750565b80156102e05780601f106102b5576101008083540402835291602001916102e0565b820191906000526020600020905b8154815290600101906020018083116102c357829003601f168201915b5050505050908060020154905083565b60405180606001604052808481526020018381526020018281525060008460405161031b919061070a565b9081526020016040518091039020600082015181600001908161033e919061092d565b506020820151816001019081610354919061092d565b5060408201518160020155905050505050565b6000604051905090565b600080fd5b600080fd5b600080fd5b600080fd5b6000601f19601f8301169050919050565b7f4e487b7100000000000000000000000000000000000000000000000000000000600052604160045260246000fd5b6103ce82610385565b810181811067ffffffffffffffff821117156103ed576103ec610396565b5b80604052505050565b6000610400610367565b905061040c82826103c5565b919050565b600067ffffffffffffffff82111561042c5761042b610396565b5b61043582610385565b9050602081019050919050565b82818337600083830152505050565b600061046461045f84610411565b6103f6565b9050828152602081018484840111156104805761047f610380565b5b61048b848285610442565b509392505050565b600082601f8301126104a8576104a761037b565b5b81356104b8848260208601610451565b91505092915050565b6000602082840312156104d7576104d6610371565b5b600082013567ffffffffffffffff8111156104f5576104f4610376565b5b61050184828501610493565b91505092915050565b600081519050919050565b600082825260208201905092915050565b60005b83811015610544578082015181840152602081019050610529565b60008484015250505050565b600061055b8261050a565b6105658185610515565b9350610575818560208601610526565b61057e81610385565b840191505092915050565b6000819050919050565b61059c81610589565b82525050565b600060408201905081810360008301526105bc8185610550565b90506105cb6020830184610593565b9392505050565b600060608201905081810360008301526105ec8186610550565b905081810360208301526106008185610550565b905061060f6040830184610593565b949350505050565b61062081610589565b811461062b57600080fd5b50565b60008135905061063d81610617565b92915050565b60008060006060848603121561065c5761065b610371565b5b600084013567ffffffffffffffff81111561067a57610679610376565b5b61068686828701610493565b935050602084013567ffffffffffffffff8111156106a7576106a6610376565b5b6106b386828701610493565b92505060406106c48682870161062e565b9150509250925092565b600081905092915050565b60006106e48261050a565b6106ee81856106ce565b93506106fe818560208601610526565b80840191505092915050565b600061071682846106d9565b915081905092915050565b7f4e487b7100000000000000000000000000000000000000000000000000000000600052602260045260246000fd5b6000600282049050600182168061076857607f821691505b60208210810361077b5761077a610721565b5b50919050565b60008190508160005260206000209050919050565b60006020601f8301049050919050565b600082821b905092915050565b6000600883026107e37fffffffffffffffffffffffffffffffffffffffffffffffffffffffffffffffff826107a6565b6107ed86836107a6565b95508019841693508086168417925050509392505050565b6000819050919050565b600061082a61082561082084610589565b610805565b610589565b9050919050565b6000819050919050565b6108448361080f565b61085861085082610831565b8484546107b3565b825550505050565b600090565b61086d610860565b61087881848461083b565b505050565b5b8181101561089c57610891600082610865565b60018101905061087e565b5050565b601f8211156108e1576108b281610781565b6108bb84610796565b810160208510156108ca578190505b6108de6108d685610796565b83018261087d565b50505b505050565b600082821c905092915050565b6000610904600019846008026108e6565b1980831691505092915050565b600061091d83836108f3565b9150826002028217905092915050565b6109368261050a565b67ffffffffffffffff81111561094f5761094e610396565b5b6109598254610750565b6109648282856108a0565b600060209050601f8311600181146109975760008415610985578287015190505b61098f8582610911565b8655506109f7565b601f1984166109a586610781565b60005b828110156109cd578489015182556001820191506020850194506020810190506109a8565b868310156109ea57848901516109e6601f8916826108f3565b8355505b6001600288020188555050505b50505050505056fea264697066735822122031f80233d3eb2719652a2363318f4279dee01f0f1f803d77613032f5846731de64736f6c63430008110033",
  "immutableReferences": {},
  "source": "// SPDX-License-Identifier: MIT\npragma solidity >=0.4.22 <0.9.0;\n\ncontract NewNote {\n  struct user {\n    string name;\n    string adress;\n    uint number;\n  }\n\n  mapping(string => user) public users;\n\n  function setUser(string memory name, string memory adress, uint number) public {\n    users[name] = user(name, adress, number);\n  }\n\n  function getUser(string memory name) public view returns (string memory, uint) {\n    return (users[name].adress, users[name].number);\n  }\n}\n",
  "sourcePath": "/Users/narek/Code/Solidity/SimpleData/contracts/NewNote.sol",
  "compiler": {
    "name": "solc",
    "version": "0.8.17+commit.8df45f5f.Emscripten.clang"
  },
  "schemaVersion": "3.4.11",
  "updatedAt": "2023-02-15T20:37:07.273Z",
  "networkType": "ethereum",
  "devdoc": {
    "kind": "dev",
    "methods": {},
    "version": 1
  },
  "userdoc": {
    "kind": "user",
    "methods": {},
    "version": 1
  }
}