{
  "contractName": "Note",
  "abi": [
    {
      "inputs": [],
      "name": "adress",
      "outputs": [
        {
          "internalType": "string",
          "name": "",
          "type": "string"
        }
      ],
      "stateMutability": "view",
      "type": "function",
      "constant": true
    },
    {
      "inputs": [],
      "name": "name",
      "outputs": [
        {
          "internalType": "string",
          "name": "",
          "type": "string"
        }
      ],
      "stateMutability": "view",
      "type": "function",
      "constant": true
    },
    {
      "inputs": [
        {
          "internalType": "string",
          "name": "newName",
          "type": "string"
        },
        {
          "internalType": "string",
          "name": "newAdress",
          "type": "string"
        },
        {
          "internalType": "uint256",
          "name": "newNumber",
          "type": "uint256"
        }
      ],
      "name": "set",
      "outputs": [],
      "stateMutability": "nonpayable",
      "type": "function"
    },
    {
      "inputs": [],
      "name": "get",
      "outputs": [
        {
          "internalType": "string",
          "name": "",
          "type": "string"
        },
        {
          "internalType": "string",
          "name": "",
          "type": "string"
        },
        {
          "internalType": "uint256",
          "name": "",
          "type": "uint256"
        }
      ],
      "stateMutability": "view",
      "type": "function",
      "constant": true
    }
  ],
  "bytecode": "0x608060405234801561001057600080fd5b50610963806100206000396000f3fe608060405234801561001057600080fd5b506004361061004c5760003560e01c806306fdde031461005157806347c816991461006f5780636d4ce63c1461008b5780638c878f38146100ab575b600080fd5b6100596100c9565b60405161006691906103cf565b60405180910390f35b61008960048036038101906100849190610570565b610157565b005b610093610183565b6040516100a29392919061060a565b60405180910390f35b6100b36102b1565b6040516100c091906103cf565b60405180910390f35b600080546100d69061067e565b80601f01602080910402602001604051908101604052809291908181526020018280546101029061067e565b801561014f5780601f106101245761010080835404028352916020019161014f565b820191906000526020600020905b81548152906001019060200180831161013257829003601f168201915b505050505081565b8260009081610166919061085b565b508160019081610176919061085b565b5080600281905550505050565b606080600080600160025482805461019a9061067e565b80601f01602080910402602001604051908101604052809291908181526020018280546101c69061067e565b80156102135780601f106101e857610100808354040283529160200191610213565b820191906000526020600020905b8154815290600101906020018083116101f657829003601f168201915b505050505092508180546102269061067e565b80601f01602080910402602001604051908101604052809291908181526020018280546102529061067e565b801561029f5780601f106102745761010080835404028352916020019161029f565b820191906000526020600020905b81548152906001019060200180831161028257829003601f168201915b50505050509150925092509250909192565b600180546102be9061067e565b80601f01602080910402602001604051908101604052809291908181526020018280546102ea9061067e565b80156103375780601f1061030c57610100808354040283529160200191610337565b820191906000526020600020905b81548152906001019060200180831161031a57829003601f168201915b505050505081565b600081519050919050565b600082825260208201905092915050565b60005b8381101561037957808201518184015260208101905061035e565b60008484015250505050565b6000601f19601f8301169050919050565b60006103a18261033f565b6103ab818561034a565b93506103bb81856020860161035b565b6103c481610385565b840191505092915050565b600060208201905081810360008301526103e98184610396565b905092915050565b6000604051905090565b600080fd5b600080fd5b600080fd5b600080fd5b7f4e487b7100000000000000000000000000000000000000000000000000000000600052604160045260246000fd5b61044782610385565b810181811067ffffffffffffffff821117156104665761046561040f565b5b80604052505050565b60006104796103f1565b9050610485828261043e565b919050565b600067ffffffffffffffff8211156104a5576104a461040f565b5b6104ae82610385565b9050602081019050919050565b82818337600083830152505050565b60006104dd6104d88461048a565b61046f565b9050828152602081018484840111156104f9576104f861040a565b5b6105048482856104bb565b509392505050565b600082601f83011261052157610520610405565b5b81356105318482602086016104ca565b91505092915050565b6000819050919050565b61054d8161053a565b811461055857600080fd5b50565b60008135905061056a81610544565b92915050565b600080600060608486031215610589576105886103fb565b5b600084013567ffffffffffffffff8111156105a7576105a6610400565b5b6105b38682870161050c565b935050602084013567ffffffffffffffff8111156105d4576105d3610400565b5b6105e08682870161050c565b92505060406105f18682870161055b565b9150509250925092565b6106048161053a565b82525050565b600060608201905081810360008301526106248186610396565b905081810360208301526106388185610396565b905061064760408301846105fb565b949350505050565b7f4e487b7100000000000000000000000000000000000000000000000000000000600052602260045260246000fd5b6000600282049050600182168061069657607f821691505b6020821081036106a9576106a861064f565b5b50919050565b60008190508160005260206000209050919050565b60006020601f8301049050919050565b600082821b905092915050565b6000600883026107117fffffffffffffffffffffffffffffffffffffffffffffffffffffffffffffffff826106d4565b61071b86836106d4565b95508019841693508086168417925050509392505050565b6000819050919050565b600061075861075361074e8461053a565b610733565b61053a565b9050919050565b6000819050919050565b6107728361073d565b61078661077e8261075f565b8484546106e1565b825550505050565b600090565b61079b61078e565b6107a6818484610769565b505050565b5b818110156107ca576107bf600082610793565b6001810190506107ac565b5050565b601f82111561080f576107e0816106af565b6107e9846106c4565b810160208510156107f8578190505b61080c610804856106c4565b8301826107ab565b50505b505050565b600082821c905092915050565b600061083260001984600802610814565b1980831691505092915050565b600061084b8383610821565b9150826002028217905092915050565b6108648261033f565b67ffffffffffffffff81111561087d5761087c61040f565b5b610887825461067e565b6108928282856107ce565b600060209050601f8311600181146108c557600084156108b3578287015190505b6108bd858261083f565b865550610925565b601f1984166108d3866106af565b60005b828110156108fb578489015182556001820191506020850194506020810190506108d6565b868310156109185784890151610914601f891682610821565b8355505b6001600288020188555050505b50505050505056fea264697066735822122040f0799efa0a5bee2b5d37842e323dc321acd9094e80118c3270738816845ec164736f6c63430008110033",
  "immutableReferences": {},
  "source": "// SPDX-License-Identifier: MIT\npragma solidity >=0.4.22 <0.9.0;\n\ncontract Note {\n  string public name;\n  string public adress;\n  uint number;\n\n  function set(string memory newName, string memory newAdress, uint newNumber) public {\n    name = newName;\n    adress = newAdress;\n    number = newNumber;\n  }\n\n  function get() public view returns (string memory, string memory, uint) {\n    return (name, adress, number);\n  }\n}\n",
  "sourcePath": "/Users/narek/Code/Solidity/SimpleData/contracts/Note.sol",
  "compiler": {
    "name": "solc",
    "version": "0.8.17+commit.8df45f5f.Emscripten.clang"
  },
  "schemaVersion": "3.4.11",
  "updatedAt": "2023-02-20T19:13:30.210Z",
  "networkType": "ethereum",
  "devdoc": {
    "kind": "dev",
    "methods": {},
    "version": 1
  },
  "userdoc": {
    "kind": "user",
    "methods": {},
    "version": 1
  }
}