{
  "contractName": "Owner",
  "abi": [
    {
      "inputs": [],
      "stateMutability": "nonpayable",
      "type": "constructor"
    },
    {
      "inputs": [
        {
          "internalType": "string",
          "name": "",
          "type": "string"
        }
      ],
      "name": "users",
      "outputs": [
        {
          "internalType": "string",
          "name": "name",
          "type": "string"
        },
        {
          "internalType": "uint256",
          "name": "number",
          "type": "uint256"
        },
        {
          "internalType": "uint256",
          "name": "age",
          "type": "uint256"
        }
      ],
      "stateMutability": "view",
      "type": "function",
      "constant": true
    },
    {
      "inputs": [
        {
          "internalType": "string",
          "name": "name",
          "type": "string"
        },
        {
          "internalType": "uint256",
          "name": "number",
          "type": "uint256"
        },
        {
          "internalType": "uint256",
          "name": "age",
          "type": "uint256"
        }
      ],
      "name": "setUser",
      "outputs": [],
      "stateMutability": "nonpayable",
      "type": "function"
    },
    {
      "inputs": [
        {
          "internalType": "string",
          "name": "name",
          "type": "string"
        }
      ],
      "name": "getUser",
      "outputs": [
        {
          "internalType": "uint256",
          "name": "",
          "type": "uint256"
        },
        {
          "internalType": "uint256",
          "name": "",
          "type": "uint256"
        }
      ],
      "stateMutability": "view",
      "type": "function",
      "constant": true
    }
  ],
  "bytecode": "0x608060405234801561001057600080fd5b50336000806101000a81548173ffffffffffffffffffffffffffffffffffffffff021916908373ffffffffffffffffffffffffffffffffffffffff160217905550610a74806100606000396000f3fe608060405234801561001057600080fd5b50600436106100415760003560e01c806331feb67114610046578063689e1c0314610077578063ebd8c4c8146100a9575b600080fd5b610060600480360381019061005b91906104be565b6100c5565b60405161006e929190610520565b60405180910390f35b610091600480360381019061008c91906104be565b6101a3565b6040516100a0939291906105c8565b60405180910390f35b6100c360048036038101906100be9190610632565b61026b565b005b60008060008054906101000a900473ffffffffffffffffffffffffffffffffffffffff1673ffffffffffffffffffffffffffffffffffffffff163373ffffffffffffffffffffffffffffffffffffffff1614610156576040517f08c379a000000000000000000000000000000000000000000000000000000000815260040161014d906106ed565b60405180910390fd5b6001836040516101669190610749565b9081526020016040518091039020600101546001846040516101889190610749565b90815260200160405180910390206002015491509150915091565b6001818051602081018201805184825260208301602085012081835280955050505050506000915090508060000180546101dc9061078f565b80601f01602080910402602001604051908101604052809291908181526020018280546102089061078f565b80156102555780601f1061022a57610100808354040283529160200191610255565b820191906000526020600020905b81548152906001019060200180831161023857829003601f168201915b5050505050908060010154908060020154905083565b60008054906101000a900473ffffffffffffffffffffffffffffffffffffffff1673ffffffffffffffffffffffffffffffffffffffff163373ffffffffffffffffffffffffffffffffffffffff16146102f9576040517f08c379a00000000000000000000000000000000000000000000000000000000081526004016102f0906106ed565b60405180910390fd5b6040518060600160405280848152602001838152602001828152506001846040516103249190610749565b90815260200160405180910390206000820151816000019081610347919061096c565b506020820151816001015560408201518160020155905050505050565b6000604051905090565b600080fd5b600080fd5b600080fd5b600080fd5b6000601f19601f8301169050919050565b7f4e487b7100000000000000000000000000000000000000000000000000000000600052604160045260246000fd5b6103cb82610382565b810181811067ffffffffffffffff821117156103ea576103e9610393565b5b80604052505050565b60006103fd610364565b905061040982826103c2565b919050565b600067ffffffffffffffff82111561042957610428610393565b5b61043282610382565b9050602081019050919050565b82818337600083830152505050565b600061046161045c8461040e565b6103f3565b90508281526020810184848401111561047d5761047c61037d565b5b61048884828561043f565b509392505050565b600082601f8301126104a5576104a4610378565b5b81356104b584826020860161044e565b91505092915050565b6000602082840312156104d4576104d361036e565b5b600082013567ffffffffffffffff8111156104f2576104f1610373565b5b6104fe84828501610490565b91505092915050565b6000819050919050565b61051a81610507565b82525050565b60006040820190506105356000830185610511565b6105426020830184610511565b9392505050565b600081519050919050565b600082825260208201905092915050565b60005b83811015610583578082015181840152602081019050610568565b60008484015250505050565b600061059a82610549565b6105a48185610554565b93506105b4818560208601610565565b6105bd81610382565b840191505092915050565b600060608201905081810360008301526105e2818661058f565b90506105f16020830185610511565b6105fe6040830184610511565b949350505050565b61060f81610507565b811461061a57600080fd5b50565b60008135905061062c81610606565b92915050565b60008060006060848603121561064b5761064a61036e565b5b600084013567ffffffffffffffff81111561066957610668610373565b5b61067586828701610490565b93505060206106868682870161061d565b92505060406106978682870161061d565b9150509250925092565b7f4e6f74206f776e65720000000000000000000000000000000000000000000000600082015250565b60006106d7600983610554565b91506106e2826106a1565b602082019050919050565b60006020820190508181036000830152610706816106ca565b9050919050565b600081905092915050565b600061072382610549565b61072d818561070d565b935061073d818560208601610565565b80840191505092915050565b60006107558284610718565b915081905092915050565b7f4e487b7100000000000000000000000000000000000000000000000000000000600052602260045260246000fd5b600060028204905060018216806107a757607f821691505b6020821081036107ba576107b9610760565b5b50919050565b60008190508160005260206000209050919050565b60006020601f8301049050919050565b600082821b905092915050565b6000600883026108227fffffffffffffffffffffffffffffffffffffffffffffffffffffffffffffffff826107e5565b61082c86836107e5565b95508019841693508086168417925050509392505050565b6000819050919050565b600061086961086461085f84610507565b610844565b610507565b9050919050565b6000819050919050565b6108838361084e565b61089761088f82610870565b8484546107f2565b825550505050565b600090565b6108ac61089f565b6108b781848461087a565b505050565b5b818110156108db576108d06000826108a4565b6001810190506108bd565b5050565b601f821115610920576108f1816107c0565b6108fa846107d5565b81016020851015610909578190505b61091d610915856107d5565b8301826108bc565b50505b505050565b600082821c905092915050565b600061094360001984600802610925565b1980831691505092915050565b600061095c8383610932565b9150826002028217905092915050565b61097582610549565b67ffffffffffffffff81111561098e5761098d610393565b5b610998825461078f565b6109a38282856108df565b600060209050601f8311600181146109d657600084156109c4578287015190505b6109ce8582610950565b865550610a36565b601f1984166109e4866107c0565b60005b82811015610a0c578489015182556001820191506020850194506020810190506109e7565b86831015610a295784890151610a25601f891682610932565b8355505b6001600288020188555050505b50505050505056fea26469706673582212204ea0fb08361c90819ad252e13ee425e55960196838c860cbe64d5989a155dbef64736f6c63430008110033",
  "immutableReferences": {},
  "source": "// SPDX-License-Identifier: MIT\npragma solidity >=0.4.22 <0.9.0;\n\ncontract Owner {\n  address owner;\n  constructor() {\n    owner = msg.sender;\n  }\n\n  struct user {\n    string name;\n    uint number;\n    uint age;\n  }\n  mapping(string => user) public users;\n\n  function setUser(string memory name, uint number, uint age) public {\n    require(msg.sender == owner, \"Not owner\");\n    users[name] = user(name, number, age);\n  }\n\n  function getUser(string memory name) public view returns (uint, uint) {\n    require(msg.sender == owner, \"Not owner\");\n    return (users[name].number, users[name].age);\n  }\n}\n",
  "sourcePath": "/Users/narek/Code/Solidity/SimpleData/contracts/Owner.sol",
  "compiler": {
    "name": "solc",
    "version": "0.8.17+commit.8df45f5f.Emscripten.clang"
  },
  "schemaVersion": "3.4.11",
  "updatedAt": "2023-02-20T19:13:30.862Z",
  "networkType": "ethereum",
  "devdoc": {
    "kind": "dev",
    "methods": {},
    "version": 1
  },
  "userdoc": {
    "kind": "user",
    "methods": {},
    "version": 1
  }
}