{
  "contractName": "Voter",
  "abi": [
    {
      "anonymous": false,
      "inputs": [
        {
          "indexed": true,
          "internalType": "uint256",
          "name": "candidateId",
          "type": "uint256"
        }
      ],
      "name": "votedEvent",
      "type": "event"
    },
    {
      "inputs": [
        {
          "internalType": "string",
          "name": "newCandidate",
          "type": "string"
        }
      ],
      "name": "addCandidate",
      "outputs": [],
      "stateMutability": "nonpayable",
      "type": "function"
    },
    {
      "inputs": [
        {
          "internalType": "uint256",
          "name": "candidateId",
          "type": "uint256"
        }
      ],
      "name": "Vote",
      "outputs": [],
      "stateMutability": "nonpayable",
      "type": "function"
    },
    {
      "inputs": [],
      "name": "getWinner",
      "outputs": [
        {
          "internalType": "uint256",
          "name": "",
          "type": "uint256"
        },
        {
          "internalType": "string",
          "name": "",
          "type": "string"
        },
        {
          "internalType": "uint256",
          "name": "",
          "type": "uint256"
        }
      ],
      "stateMutability": "view",
      "type": "function",
      "constant": true
    }
  ],
  "bytecode": "0x6080604052600160005534801561001557600080fd5b50610b18806100256000396000f3fe608060405234801561001057600080fd5b50600436106100415760003560e01c8063462e91ec146100465780638e7ea5b214610062578063dcd6a5cd14610082575b600080fd5b610060600480360381019061005b919061053d565b61009e565b005b61006a610117565b6040516100799392919061061e565b60405180910390f35b61009c60048036038101906100979190610688565b610253565b005b60405180606001604052806000548152602001828152602001600081525060026000805481526020019081526020016000206000820151816000015560208201518160010190816100ef91906108c1565b506040820151816002015590505060008081548092919061010f906109c2565b919050555050565b6000606060008060005b60005481101561017657600260008381526020019081526020016000206002015460026000838152602001908152602001600020600201541115610163578091505b808061016e906109c2565b915050610121565b5060026000828152602001908152602001600020600001546002600083815260200190815260200160002060010160026000848152602001908152602001600020600201548180546101c7906106e4565b80601f01602080910402602001604051908101604052809291908181526020018280546101f3906106e4565b80156102405780601f1061021557610100808354040283529160200191610240565b820191906000526020600020905b81548152906001019060200180831161022357829003601f168201915b5050505050915093509350935050909192565b600160003373ffffffffffffffffffffffffffffffffffffffff1673ffffffffffffffffffffffffffffffffffffffff16815260200190815260200160002060009054906101000a900460ff16156102e0576040517f08c379a00000000000000000000000000000000000000000000000000000000081526004016102d790610a56565b60405180910390fd5b6000811180156102f1575060005481105b610330576040517f08c379a000000000000000000000000000000000000000000000000000000000815260040161032790610ac2565b60405180910390fd5b60018060003373ffffffffffffffffffffffffffffffffffffffff1673ffffffffffffffffffffffffffffffffffffffff16815260200190815260200160002060006101000a81548160ff0219169083151502179055506002600082815260200190815260200160002060020160008154809291906103ae906109c2565b9190505550807ffff3c900d938d21d0990d786e819f29b8d05c1ef587b462b939609625b684b1660405160405180910390a250565b6000604051905090565b600080fd5b600080fd5b600080fd5b600080fd5b6000601f19601f8301169050919050565b7f4e487b7100000000000000000000000000000000000000000000000000000000600052604160045260246000fd5b61044a82610401565b810181811067ffffffffffffffff8211171561046957610468610412565b5b80604052505050565b600061047c6103e3565b90506104888282610441565b919050565b600067ffffffffffffffff8211156104a8576104a7610412565b5b6104b182610401565b9050602081019050919050565b82818337600083830152505050565b60006104e06104db8461048d565b610472565b9050828152602081018484840111156104fc576104fb6103fc565b5b6105078482856104be565b509392505050565b600082601f830112610524576105236103f7565b5b81356105348482602086016104cd565b91505092915050565b600060208284031215610553576105526103ed565b5b600082013567ffffffffffffffff811115610571576105706103f2565b5b61057d8482850161050f565b91505092915050565b6000819050919050565b61059981610586565b82525050565b600081519050919050565b600082825260208201905092915050565b60005b838110156105d95780820151818401526020810190506105be565b60008484015250505050565b60006105f08261059f565b6105fa81856105aa565b935061060a8185602086016105bb565b61061381610401565b840191505092915050565b60006060820190506106336000830186610590565b818103602083015261064581856105e5565b90506106546040830184610590565b949350505050565b61066581610586565b811461067057600080fd5b50565b6000813590506106828161065c565b92915050565b60006020828403121561069e5761069d6103ed565b5b60006106ac84828501610673565b91505092915050565b7f4e487b7100000000000000000000000000000000000000000000000000000000600052602260045260246000fd5b600060028204905060018216806106fc57607f821691505b60208210810361070f5761070e6106b5565b5b50919050565b60008190508160005260206000209050919050565b60006020601f8301049050919050565b600082821b905092915050565b6000600883026107777fffffffffffffffffffffffffffffffffffffffffffffffffffffffffffffffff8261073a565b610781868361073a565b95508019841693508086168417925050509392505050565b6000819050919050565b60006107be6107b96107b484610586565b610799565b610586565b9050919050565b6000819050919050565b6107d8836107a3565b6107ec6107e4826107c5565b848454610747565b825550505050565b600090565b6108016107f4565b61080c8184846107cf565b505050565b5b81811015610830576108256000826107f9565b600181019050610812565b5050565b601f8211156108755761084681610715565b61084f8461072a565b8101602085101561085e578190505b61087261086a8561072a565b830182610811565b50505b505050565b600082821c905092915050565b60006108986000198460080261087a565b1980831691505092915050565b60006108b18383610887565b9150826002028217905092915050565b6108ca8261059f565b67ffffffffffffffff8111156108e3576108e2610412565b5b6108ed82546106e4565b6108f8828285610834565b600060209050601f83116001811461092b5760008415610919578287015190505b61092385826108a5565b86555061098b565b601f19841661093986610715565b60005b828110156109615784890151825560018201915060208501945060208101905061093c565b8683101561097e578489015161097a601f891682610887565b8355505b6001600288020188555050505b505050505050565b7f4e487b7100000000000000000000000000000000000000000000000000000000600052601160045260246000fd5b60006109cd82610586565b91507fffffffffffffffffffffffffffffffffffffffffffffffffffffffffffffffff82036109ff576109fe610993565b5b600182019050919050565b7f596f75206861766520616c726561647920766f74656400000000000000000000600082015250565b6000610a406016836105aa565b9150610a4b82610a0a565b602082019050919050565b60006020820190508181036000830152610a6f81610a33565b9050919050565b7f496e76616c69642063616e646964617465206964000000000000000000000000600082015250565b6000610aac6014836105aa565b9150610ab782610a76565b602082019050919050565b60006020820190508181036000830152610adb81610a9f565b905091905056fea26469706673582212205112f8d4a7f3a4774c566a284d352e93e4321d38570675630e58fafb551ab69064736f6c63430008110033",
  "immutableReferences": {},
  "source": "// SPDX-License-Identifier: MIT\npragma solidity >=0.4.22 <0.9.0;\n\ncontract Voter {\n  struct Candidate {\n    uint id;\n    string name;\n    uint votes;\n  }\n\n  uint private length = 1;\n  mapping (address => bool) private voters;\n  mapping (uint => Candidate) private candidates;\n\n  event votedEvent (uint indexed candidateId);\n\n  function addCandidate(string memory newCandidate) public {\n    candidates[length] = Candidate(length, newCandidate, 0);\n    length++;\n  }\n\n  function Vote(uint candidateId) public {\n    require(!voters[msg.sender], \"You have already voted\");\n    require(candidateId > 0 && candidateId < length, \"Invalid candidate id\");\n    voters[msg.sender] = true;\n    candidates[candidateId].votes++;\n    emit votedEvent(candidateId);\n  }\n\n  function getWinner() public view returns (uint, string memory, uint) {\n    uint winner;\n    for (uint id = 0; id < length; id++) {\n      if (candidates[id].votes > candidates[winner].votes) {\n        winner = id;\n      }\n    }\n    return (candidates[winner].id, candidates[winner].name, candidates[winner].votes);\n  }\n}\n",
  "sourcePath": "/Users/narek/Code/Solidity/SimpleData/contracts/Voter.sol",
  "compiler": {
    "name": "solc",
    "version": "0.8.17+commit.8df45f5f.Emscripten.clang"
  },
  "schemaVersion": "3.4.11",
  "updatedAt": "2023-02-20T21:12:21.861Z",
  "networkType": "ethereum",
  "devdoc": {
    "kind": "dev",
    "methods": {},
    "version": 1
  },
  "userdoc": {
    "kind": "user",
    "methods": {},
    "version": 1
  }
}