{
  "contractName": "Calculator",
  "abi": [
    {
      "inputs": [
        {
          "internalType": "uint256",
          "name": "x",
          "type": "uint256"
        },
        {
          "internalType": "bytes32",
          "name": "oper",
          "type": "bytes32"
        },
        {
          "internalType": "uint256",
          "name": "y",
          "type": "uint256"
        }
      ],
      "name": "getCalk",
      "outputs": [
        {
          "internalType": "uint256",
          "name": "",
          "type": "uint256"
        }
      ],
      "stateMutability": "pure",
      "type": "function",
      "constant": true
    }
  ],
  "bytecode": "0x608060405234801561001057600080fd5b506103b2806100206000396000f3fe608060405234801561001057600080fd5b506004361061002b5760003560e01c8063321fe0f814610030575b600080fd5b61004a600480360381019061004591906101c6565b610060565b6040516100579190610228565b60405180910390f35b6000807f2b00000000000000000000000000000000000000000000000000000000000000840361009d5782856100969190610272565b905061014a565b7f2d0000000000000000000000000000000000000000000000000000000000000084036100d75782856100d091906102a6565b9050610149565b7f2a00000000000000000000000000000000000000000000000000000000000000840361011157828561010a91906102da565b9050610148565b7f2f000000000000000000000000000000000000000000000000000000000000008403610147578285610144919061034b565b90505b5b5b5b809150509392505050565b600080fd5b6000819050919050565b61016d8161015a565b811461017857600080fd5b50565b60008135905061018a81610164565b92915050565b6000819050919050565b6101a381610190565b81146101ae57600080fd5b50565b6000813590506101c08161019a565b92915050565b6000806000606084860312156101df576101de610155565b5b60006101ed8682870161017b565b93505060206101fe868287016101b1565b925050604061020f8682870161017b565b9150509250925092565b6102228161015a565b82525050565b600060208201905061023d6000830184610219565b92915050565b7f4e487b7100000000000000000000000000000000000000000000000000000000600052601160045260246000fd5b600061027d8261015a565b91506102888361015a565b92508282019050808211156102a05761029f610243565b5b92915050565b60006102b18261015a565b91506102bc8361015a565b92508282039050818111156102d4576102d3610243565b5b92915050565b60006102e58261015a565b91506102f08361015a565b92508282026102fe8161015a565b9150828204841483151761031557610314610243565b5b5092915050565b7f4e487b7100000000000000000000000000000000000000000000000000000000600052601260045260246000fd5b60006103568261015a565b91506103618361015a565b9250826103715761037061031c565b5b82820490509291505056fea2646970667358221220bec6bf68e16b21123bc801ea0e0b0995793160f8806f0c825e85091302450b8d64736f6c63430008110033",
  "immutableReferences": {},
  "source": "// SPDX-License-Identifier: MIT\npragma solidity >=0.4.22 <0.9.0;\n\ncontract Calculator {\n  function getCalk(uint256 x, bytes32 oper, uint256 y) public pure returns (uint256) {\n    uint256 res;\n    if (oper == \"+\") {\n      res = x + y;\n    } else if (oper == \"-\") {\n      res = x - y;\n    } else if (oper == \"*\") {\n      res = x * y;\n    } else if (oper == \"/\") {\n      res = x / y;\n    }\n\n    return res;\n  }\n}\n",
  "sourcePath": "/Users/narek/Code/Solidity/SimpleContracts/contracts/Calculator.sol",
  "compiler": {
    "name": "solc",
    "version": "0.8.17+commit.8df45f5f.Emscripten.clang"
  },
  "schemaVersion": "3.4.11",
  "updatedAt": "2023-02-15T19:31:47.944Z",
  "networkType": "ethereum",
  "devdoc": {
    "kind": "dev",
    "methods": {},
    "version": 1
  },
  "userdoc": {
    "kind": "user",
    "methods": {},
    "version": 1
  }
}