{
  "contractName": "Factorial",
  "abi": [
    {
      "inputs": [
        {
          "internalType": "uint256",
          "name": "n",
          "type": "uint256"
        }
      ],
      "name": "getFactorial",
      "outputs": [
        {
          "internalType": "uint256",
          "name": "",
          "type": "uint256"
        }
      ],
      "stateMutability": "pure",
      "type": "function",
      "constant": true
    }
  ],
  "bytecode": "0x608060405234801561001057600080fd5b50610221806100206000396000f3fe608060405234801561001057600080fd5b506004361061002b5760003560e01c80638235841414610030575b600080fd5b61004a600480360381019061004591906100db565b610060565b6040516100579190610117565b60405180910390f35b600080600190506000600190505b8381116100965780826100819190610161565b9150808061008e906101a3565b91505061006e565b5080915050919050565b600080fd5b6000819050919050565b6100b8816100a5565b81146100c357600080fd5b50565b6000813590506100d5816100af565b92915050565b6000602082840312156100f1576100f06100a0565b5b60006100ff848285016100c6565b91505092915050565b610111816100a5565b82525050565b600060208201905061012c6000830184610108565b92915050565b7f4e487b7100000000000000000000000000000000000000000000000000000000600052601160045260246000fd5b600061016c826100a5565b9150610177836100a5565b9250828202610185816100a5565b9150828204841483151761019c5761019b610132565b5b5092915050565b60006101ae826100a5565b91507fffffffffffffffffffffffffffffffffffffffffffffffffffffffffffffffff82036101e0576101df610132565b5b60018201905091905056fea264697066735822122066af89a85631f7a48129d9b524285bcdeac4d950e37c182acad9a481e86bd93964736f6c63430008110033",
  "immutableReferences": {},
  "source": "// SPDX-License-Identifier: MIT\npragma solidity >=0.4.22 <0.9.0;\n\ncontract Factorial {\n  function getFactorial(uint n) public pure returns (uint256) {\n    uint f = 1;\n    for (uint i = 1; i <= n; i++) f *= i;\n    return f;\n  }\n}\n",
  "sourcePath": "/Users/narek/Code/Solidity/SimpleContracts/contracts/Factorial.sol",
  "compiler": {
    "name": "solc",
    "version": "0.8.17+commit.8df45f5f.Emscripten.clang"
  },
  "schemaVersion": "3.4.11",
  "updatedAt": "2023-02-15T19:31:47.727Z",
  "networkType": "ethereum",
  "devdoc": {
    "kind": "dev",
    "methods": {},
    "version": 1
  },
  "userdoc": {
    "kind": "user",
    "methods": {},
    "version": 1
  }
}